:100000000C942A000C943C000C943C000C943C0092
:100010000C943C000C943C000C943C000C943C0070
:100020000C943C000C943E000C943C000C943C005E
:100030000C943C000C943C000C943C000C943C0050
:100040000C943C000C943C000C943C000C943C0040
:100050000C943C0011241FBECFE5D4E0DEBFCDBF21
:1000600020E0A0E6B0E001C01D92A136B207E1F7A2
:100070000E9465000C946C000C9400001F920F927B
:100080000FB60F9211248F93809160008F5F8A3793
:1000900019F0809360000AC01092600082B389302A
:1000A00011F412BA03C082B38F5F82BB8F910F909D
:1000B0000FBE0F901F90189513BE83B7846083BF47
:1000C00012BE89B7816089BF08958FE081BB12BAE3
:0C00D00078940E945C00FFCFF894FFCFF2
:00000001FF
