:100000000C9432000C943C000C943C000C943C008A
:100010000C943C000C943C000C943C000C943C0070
:100020000C943C000C943C000C943C000C943C0060
:100030000C943C000C943C000C943C000C943C0050
:100040000C943C000C943C000C943C000C943C0040
:100050000C943C000C943C000C943C000C943C0030
:100060000C943C0011241FBECFEFD8E0DEBFCDBF03
:100070000E943E000C9459000C9400008FEF8DB943
:1000800031E022E0009B13C03EB981EA96E8A1E08E
:10009000B0E00197A109B109E1F72EB981EA96E82C
:1000A000A1E0B0E00197A109B109E1F7EBCF1EB8DB
:0600B000E9CFF894FFCF38
:00000001FF
