S01E000041544D454741333239305F505553482D425554544F4E2E73726563E1
S11300000C9432000C943C000C943C000C943C0086
S11300100C943C000C943C000C943C000C943C006C
S11300200C943C000C943C000C943C000C943C005C
S11300300C943C000C943C000C943C000C943C004C
S11300400C943C000C943C000C943C000C943C003C
S11300500C943C000C943C000C943C000C943C002C
S11300600C943C0011241FBECFEFD8E0DEBFCDBFFF
S11300700E943E000C944E000C9400008FEF81B956
S113008014B81C9BFECF82B1809582B980E090E0C9
S11300900196813727E19207D9F7F3CFF894FFCF80
S9030000FC
