:100000000C9432000C943C000C943C000C943C008A
:100010000C943C000C943C000C943C000C943C0070
:100020000C943C000C943C000C943C000C943C0060
:100030000C943C000C943C000C943C000C943C0050
:100040000C943C000C943C000C943C000C943C0040
:100050000C943C000C943C000C943C000C943C0030
:100060000C943C0011241FBECFEFD8E0DEBFCDBF03
:100070000E943E000C9456000C940000689A699A05
:100080006A9A6B9A809A819A829A889A719A8898C9
:100090002FE986E891E0215080409040E1F700C0D0
:1000A00000008A9A8EB189608EB9FFCFF894FFCF95
:00000001FF
