S0220000285044462E332941544D45474131365F45584552434953452D322E737265634A
S11300000C942A000C9434000C9436000C943400A4
S11300100C9434000C9434000C9434000C9434008C
S11300200C9434000C9434000C9434000C9434007C
S11300300C9434000C9434000C9434000C9434006C
S11300400C9434000C9434000C9434000C9434005C
S11300500C94340011241FBECFE5D4E0DEBFCDBF25
S11300600E9468000C9484000C9400001F920F926C
S11300700FB60F9211242F933F934F938F939F9317
S113008025B3839B1AC03FE54AEE80E031504040DF
S11300908040E1F700C000008FEF85BB99E03FE9A5
S11300A046E881E0315040408040E1F700C0000064
S11300B085B3809585BB915091F725BB9F918F9116
S11300C04F913F912F910F900FBE0F901F90189555
S11300D084B38FEF84BB8B9878948BB780688BBF85
S11300E085B7846085BFA89A98E02FE53AEE80E052
S11300F0215030408040E1F700C0000085B3880FF4
S10F010085BB915091F7EFCFF894FFCF2E
S9030000FC
