:100000000C942A000C9434000C9434000C943400AA
:100010000C9434000C9434000C9434000C94340090
:100020000C9434000C9434000C9434000C94340080
:100030000C9434000C9434000C9434000C94340070
:100040000C9434000C9434000C9434000C94340060
:100050000C94340011241FBECFE5D4E0DEBFCDBF29
:100060000E9436000C944A000C940000D098D1985D
:10007000D298A09AA19AA89AA99AC89B02C0A89AB5
:10008000A998C99B02C0A898A99ACA9BF6CFA89A1A
:08009000A99AF3CFF894FFCF09
:00000001FF
