:100000000C9432000C943C000C943C000C943C008A
:100010000C943C000C943C000C943C000C943C0070
:100020000C943C000C943C000C943C000C943C0060
:100030000C943C000C943C000C943C000C943C0050
:100040000C943C000C943C000C943C000C943C0040
:100050000C943C000C943C000C943C000C943C0030
:100060000C943C0011241FBECFEFD8E0DEBFCDBF03
:100070000E943E000C9451000C940000689A699A0A
:100080006A9A6B9A80E08EB92FE33DE093E02150AD
:1000900030409040E1F700C000008F5F8A3099F750
:0600A000F1CFF894FFCF40
:00000001FF
