:100000000C9432000C9444000C9444000C94440072
:100010000C9444000C9444000C9444000C94440050
:100020000C9444000C9444000C9444000C944F0035
:100030000C9444000C9444000C9444000C94440030
:100040000C9444000C9444000C9444000C94440020
:100050000C9444000C9444000C9444000C94440010
:100060000C94440011241FBECFEFD8E0DEBFCDBFFB
:1000700021E0A0E0B1E001C01D92A130B207E1F79C
:100080000E9467000C946F000C94000085E884BD0A
:1000900016BCEEE6F0E080818160808308951F92B7
:1000A0000F920FB60F9211248F93809100018F5FF2
:1000B000809300018F3129F482B1809582B910922A
:1000C00000018F910F900FBE0F901F90189581B176
:1000D0008FEF81B982B978940E944600FFCFF894DF
:0200E000FFCF50
:00000001FF
