S01A000041544D45474131365F4348414C4C454E47452E7372656312
S11300000C942A000C9434000C9434000C943400A6
S11300100C9434000C9434000C9434000C9434008C
S11300200C9434000C9434000C9434000C9434007C
S11300300C9434000C9434000C9434000C9434006C
S11300400C9434000C9434000C9434000C9434005C
S11300500C94340011241FBECFE5D4E0DEBFCDBF25
S11300600E9436000C945E000C940000889A899AD1
S11300708A9A8B9AD098D19812BA80E0C89B0EC005
S11300802FE53AEE90E0215030409040E1F700C077
S11300900000893099F38F5F82BBF0CFC99BEECF0C
S11300A02FE53AEE90E0215030409040E1F700C057
S11300B00000882319F3815082BBE0CFF894FFCF6E
S9030000FC
