S0210000285044462E332941544D45474131365F4348414C4C454E47452E737265637F
S11300000C942A000C943C000C943C000C943C008E
S11300100C943C000C943C000C943C000C943C006C
S11300200C943C000C943C000C943C000C943C005C
S11300300C943C000C943C000C943C000C943C004C
S11300400C943C000C943C000C943E000C943C003A
S11300500C943C0011241FBECFE5D4E0DEBFCDBF1D
S113006020E0A0E6B0E001C01D92A136B207E1F79E
S11300700E945E000C9474000C9400001F920F9276
S11300800FB60F9211242F938F939F93B29B0EC0A0
S11300902FE58AEE90E0215080409040E1F700C0C7
S11300A00000809160008F5F809360009F918F912A
S11300B02F910F900FBE0F901F901895A09AA19AA0
S11300C0A29AA39ABA988BB780628BBF84B78064D4
S11300D084BF7894809160008A3010F010926000A0
S10F00E08091600085BBF6CFF894FFCF40
S9030000FC
