:100000000C942A000C9434000C9434000C943400AA
:100010000C9434000C9434000C9434000C94340090
:100020000C9434000C9434000C9434000C94340080
:100030000C9434000C9434000C9434000C94340070
:100040000C9434000C9434000C9434000C94340060
:100050000C94340011241FBECFE5D4E0DEBFCDBF29
:100060000E9436000C9447000C940000B898B99890
:10007000A09AA19AA898A998B09B02C0A89A01C07A
:10008000A898B19B02C0A99AF7CFA998F5CFF89488
:02009000FFCFA0
:00000001FF
