:100000000C942A000C9434000C9434000C943400AA
:100010000C9434000C9434000C9434000C94340090
:100020000C9434000C9434000C9434000C94340080
:100030000C9434000C9434000C9434000C94340070
:100040000C9434000C9434000C9434000C94340060
:100050000C94340011241FBECFE5D4E0DEBFCDBF29
:100060000E943C000C9453000C94000012BE8CBF04
:10007000BB9A8AE683BF089580E40E943600D09838
:10008000D198D298A09AA19AA89AA99AC89B02C07E
:10009000A89AA998C99B02C0A898A99ACA9BF6CF0A
:0A00A000A89AA99AF3CFF894FFCFB5
:00000001FF
