:100000000C942A000C9434000C9434000C943400AA
:100010000C9434000C9434000C9434000C94340090
:100020000C9434000C9434000C9434000C94340080
:100030000C9434000C9434000C9434000C94340070
:100040000C9434000C9434000C9434000C94340060
:100050000C94340011241FBECFE5D4E0DEBFCDBF29
:100060000E9436000C944D000C940000A09AA19AB6
:10007000A29AA39A8C9880E08A3008F080E085BB31
:10008000849BFACF2FE53AEE90E02150304090402B
:0E009000E1F700C000008F5FEFCFF894FFCFC4
:00000001FF
