S0220000285044462E342941544D45474131365F45584552434953452D342E7372656347
S11300000C942A000C9434000C9434000C943400A6
S11300100C9434000C9434000C9434000C9434008C
S11300200C9434000C9434000C9434000C9434007C
S11300300C9434000C9434000C9434000C9434006C
S11300400C9434000C9434000C9434000C9434005C
S11300500C94340011241FBECFE5D4E0DEBFCDBF25
S11300600E943B000C944E000C94000012BE8CBF06
S11300708AE683BF0895BB9A8DE790E00E9436001C
S11300802FE382E49FE0215080409040E1F700C0DC
S113009000008FE390E00E943600FFCFF894FFCF7A
S9030000FC
