S0220000285044462E332941544D45474131365F45584552434953452D312E737265634B
S11300000C942A000C9436000C9434000C943400A4
S11300100C9434000C9434000C9434000C9434008C
S11300200C9434000C9434000C9434000C9434007C
S11300300C9434000C9434000C9434000C9434006C
S11300400C9434000C9434000C9434000C9434005C
S11300500C94340011241FBECFE5D4E0DEBFCDBF25
S11300600E9455000C945F000C9400001F920F92A4
S11300700FB60F9211242F938F939F93829B0DC0E1
S11300802FE58AEE90E0215080409040E1F700C0D7
S1130090000095B381E0892785BB9F918F912F91B3
S11300A00F900FBE0F901F901895A09A8A988BB747
S11300B080648BBF85B7816085BF7894FFCFF89447
S10500C0FFCF6C
S9030000FC
